:020000040800F2
:10000000B00800204D020008150300080D03000889
:1000100011030008070300080504000800000000A1
:100020000000000000000000000000004303000882
:100030000B0300080000000041030008450300080E
:1000400067020008670200086702000867020008EC
:1000500067020008670200086702000867020008DC
:1000600067020008670200086702000867020008CC
:1000700067020008670200086702000867020008BC
:1000800067020008670200086702000867020008AC
:10009000670200086702000867020008670200089C
:1000A000670200086702000867020008670200088C
:1000B000670200086702000867020008670200087C
:1000C000670200086702000867020008670200086C
:1000D000670200086702000867020008670200085C
:1000E000670200086702000867020008670200084C
:1000F000670200086702000867020008670200083C
:10010000670200086702000867020008670200082B
:10011000670200086702000867020008670200081B
:10012000670200086702000867020008670200080B
:1001300067020008670200086702000867020008FB
:1001400067020008670200086702000867020008EB
:1001500067020008670200086702000867020008DB
:1001600067020008670200086702000867020008CB
:10017000670200086702000867020008000000002C
:1001800067020008670200086702000867020008AB
:10019000670200086702000867020008000000000C
:1001A00067020008670200086702000800F002F812
:1001B00000F03CF80AA090E8000C82448344AAF1C5
:1001C0000107DA4501D100F031F8AFF2090EBAE8C3
:1001D0000F0013F0010F18BFFB1A43F0010318477B
:1001E0005813000078130000103A24BF78C878C173
:1001F000FAD8520724BF30C830C144BF04680C602D
:10020000704700000023002400250026103A28BF74
:1002100078C1FBD8520728BF30C148BF0B60704778
:100220001FB501F079F91FBD10B510BD00F031F810
:100230001146FFF7F5FF00F05BFF00F04FF803B445
:10024000FFF7F2FF03BC00F057F8000009488047B1
:1002500009480047FEE7FEE7FEE7FEE7FEE7FEE7A8
:10026000FEE7FEE7FEE7FEE704480549054A064BC0
:10027000704700004D030008AD010008B0000020E9
:10028000B0080020B0040020B00400207047704780
:100290007047754600F02CF8AE4605006946534697
:1002A00020F00700854618B020B5FFF7DDFFBDE858
:1002B00020404FF000064FF000074FF000084FF0CD
:1002C000000B21F00701AC46ACE8C009ACE8C0095E
:1002D000ACE8C009ACE8C0098D46704710B50446CB
:1002E000AFF300802046BDE81040FFF7A8BF000034
:1002F000004870474C00002001491820ABBEFEE7C3
:1003000026000200704700BFFEE7704700BFFEE70F
:1003100000BFFEE77047000010B5002807DA0A07A3
:10032000140E054A00F00F031B1FD45403E00A0704
:10033000130E024A135410BD18ED00E000E400E073
:100340007047704710B500F069F810BD08B529482E
:10035000006840F47000274908602748006840F0B2
:1003600001002549086024480830006840F08000FA
:100370002149083108600020009002E00098401CEC
:1003800000904CF2503100988842F7D31A48083058
:10039000006840F090001849083108600020009083
:1003A00002E00098401C00904CF2503100988842C6
:1003B000F7D3002010490831086000BF0E4808300C
:1003C000006800200028F9D10B4800680B4908405C
:1003D000094908600A48091D0860081F006820F4E0
:1003E0008020091F0860002003490C31086001F0DB
:1003F00067F808BD88ED00E000380240FFFFF6FE18
:100400001030002400BFFEE70349086000BF024926
:1004100009680029FBD170471400002004480068D7
:1004200020B103480068401E014908607047000081
:100430001400002070B504460D4A117A506800F08F
:100440002CF9042510E00A2094FBF0F100FB114088
:10045000C6B2EAB2064B197A5868334600F082F801
:100460000A2094FBF0F46D1E002DECDC70BD000042
:1004700034000020F0B503461C6A5D6A00200DE0E0
:100480000126864016403EB187000F26BE40B44389
:10049000860001FA06F63443461CB0B20828EFD3B2
:1004A000082011E00126864016405EB1A0F1080642
:1004B000B7000F26BE40B543A0F10806B60001FA0A
:1004C00006F63543461CB0B21028EBD31C625D62C1
:1004D000F0BDF0B504460D4616462168E2680020DE
:1004E00019E0012787401F409FB14FEA400C0327C6
:1004F00007FA0CF7B943470005FA07F739434FEA03
:10050000400C032707FA0CF7BA43470006FA07F72F
:100510003A43471CB8B21028E3D32160E260F0BD33
:10052000F0B50C461546012C03D146681E434660C3
:1005300002E046689E434660826800210DE0012685
:100540008E401E403EB14F000326BE40B2434E00D7
:1005500005FA06F632434E1CB1B21029EFD3826081
:10056000F0BD00002DE9F04106460F4615461C4639
:10057000012D06D0022D16D0032D26D0042D48D1F2
:1005800035E0284810F8143002223946304600F091
:1005900082FA244800EB440043780322394630466F
:1005A00000F079FA35E01F4810F81430042239467B
:1005B000304600F070FA1B4800EB440043780522F7
:1005C0003946304600F067FA23E0164810F8143038
:1005D00006223946304600F05EFA124800EB44002D
:1005E000437807223946304600F055FA11E00D48AD
:1005F00010F8143008223946304600F04CFA094809
:1006000000EB4400437809223946304600F043FAB3
:1006100000BF00BF81223946304600F011FBBDE823
:10062000F08100002215000870B504460D46002335
:1006300002222946204600F02EFA002303222946F2
:10064000204600F028FA002304222946204600F024
:1006500022FA002305222946204600F01CFA002336
:1006600006222946204600F016FA002307222946D2
:10067000204600F010FA002308222946204600F008
:100680000AFA002309222946204600F004FA8122B2
:100690002946204600F0D4FA70BD70B504460D46D8
:1006A00021222946204600F0CBFA29462046FFF7B2
:1006B000BBFF70BD10B541F2150000F0D5FD002262
:1006C00009490A4800F04AFAA023002211460748C7
:1006D00000F044FB054800F00FFB4FF48061034835
:1006E00000F080F810BD0000A0860100005400401A
:1006F00010B540F6014000F0B7FD4FF480720421C0
:100700001248FFF7B7FE4FF4007204210F48FFF7BD
:10071000B1FE4FF48073012202210C48FFF7D9FE8D
:100720004FF48073022201210848FFF7F9FE4FF4CD
:100730000073012202210548FFF7CBFE4FF400733E
:10074000022201210148FFF7EBFE10BD0004024028
:1007500010B541F2160000F087FD002209490A4851
:1007600000F0FCF9A02300221146074800F0F6FA39
:10077000054800F0C1FA4FF48061034800F032F8F8
:1007800010BD0000A08601000058004010B540F6E2
:10079000054000F069FD022204211048FFF76AFEBF
:1007A000012204210D48FFF765FE01231A460221AC
:1007B0000A48FFF78EFE0123022219460848FFF778
:1007C000AFFE0223012219460448FFF782FE0223EE
:1007D0001A4601210148FFF7A3FE10BD0014024094
:1007E000000C02400A460021016821F48061114397
:1007F000016070470A460021016821F4006111433D
:100800000160704710B5002413E0C02000EB4400E5
:10081000C1B27A4800F0FEF848B17848784948609B
:10082000C02000EB440008720120087003E0601C47
:10083000C4B2042CE9DB00BF71480078012818D04D
:10084000002413E0C02000EB4400C1B26D4800F06A
:10085000E1F848B16B486A494860C02000EB4400A9
:1008600008720120087003E0601CC4B2042CE9DBAC
:1008700000BF6348007858B1614A117A002350687C
:100880001A4600F008F95E4A117A506800F07DFDC2
:10089000002413E0E82000EB4400C1B2574800F008
:1008A000B9F848B1554858494860E82000EB440081
:1008B00008720120087003E0601CC4B2042CE9DB5C
:1008C00000BF51480078012818D0002413E0E82028
:1008D00000EB4400C1B24B4800F09CF848B14948D5
:1008E00049494860E82000EB440008720120087084
:1008F00003E0601CC4B2042CE9DB00BF424800786E
:1009000028B1414A117A5068212200F099F9002457
:1009100013E0E02000EB4400C1B2384800F07AF860
:1009200048B1364839494860E02000EB440008727D
:100930000120087003E0601CC4B2042CE9DB00BF96
:1009400032480078012818D0002413E0E02000EBA2
:100950004400C1B22B4800F05DF848B129482B494A
:100960004860E02000EB440008720120087003E0BA
:10097000601CC4B2042CE9DB00BF002413E0882013
:1009800000EB4400C1B21D4800F044F848B11B48D8
:100990001F494860882000EB44000872012008705D
:1009A00003E0601CC4B2022CE9DB00BF18480078E9
:1009B000012818D0002413E0882000EB4400C1B2C5
:1009C000104800F027F848B10E48114948608820C7
:1009D00000EB440008720120087003E0601CC4B200
:1009E000022CE9DB00BF0A48007830B1084A117ACE
:1009F000A2235068302200F04EF810BD0054004091
:100A000028000020005800401C0000203400002076
:100A1000400000202DE9F04106460F46002400BFAB
:100A200040F20161304600F080F90028F8D13046EC
:100A300000F062FA00BF4FF4A061304600F075F993
:100A40000028F8D06FF001023946304600F07CF9FA
:100A500006E0601C84B24EF66020844200DD06E0B1
:100A600040F20151304600F060F90028F1D000BF9B
:100A70004EF66020844201DD002500E0012530466D
:100A800000F03FFA00BF306800F400700028FAD18F
:100A90002846BDE8F0812DE9F04104468846154618
:100AA0001E4600BF40F20161204600F03EF90028DA
:100AB000F8D1204600F020FA00BF4FF4A061204694
:100AC00000F033F90028F8D06FF0010241462046CB
:100AD00000F03AF90AE0781C87B24EF660208742AF
:100AE00004DD204600F00DFABDE8F08140F201512E
:100AF000204600F01AF90028EDD040F201512046BE
:100B000000F0FFF800BF40F20751204600F00DF959
:100B10000128F8D12946204600F0EBF800BF40F24A
:100B20000251204600F001F90028F8D03146204655
:100B300000F0DFF800BF40F20251204600F0F5F867
:100B40000028F8D0204600F0DCF900BF206800F44F
:100B500000700028FAD100BFC6E700002DE9F05F61
:100B600004460E469346022000F0ECFA0746314850
:100B7000B7FBF0F9B9F13C0F01D34FF03C09D4F8C1
:100B800004A02AF03F0A4AEA090AC4F804A02A4845
:100B900086421ED82748B7FBF0F000F10108B8F1F3
:100BA0003C0F02D33C20206207E0B8F1020F02D8CC
:100BB0000220206201E0C4F820807000B7FBF0F54D
:100BC000042D00D20425E069C5F30B010843E06160
:100BD0002EE01A4886422BD84FF4967009FB00F09D
:100BE0004FF47A71B0FBF1F0401C2062BBF1000FB2
:100BF00008D106EB4600B7FBF0F5E06920F4804031
:100C0000E06109E006EBC60000EB0610B7FBF0F56B
:100C1000E06940F48040E061C5F30B0008B945F09D
:100C20000105E06940F40040E061E0692843E061CB
:100C3000BDE8F09F40420F00A0860100801A060028
:100C40002DE9F04104460F46154600BF40F2016110
:100C5000204600F06AF80028F8D1204600F04CF950
:100C600000BF4FF4A061204600F05FF80028F8D0E4
:100C70006FF001023946204600F066F80AE0701C69
:100C800086B24EF66020864204DD204600F039F937
:100C9000BDE8F08140F20151204600F046F80028FE
:100CA000EDD040F20151204600F02BF800BF40F299
:100CB0000751204600F039F80128F8D1294620468E
:100CC00000F017F800BF40F20251204600F02DF866
:100CD0000028F8D0204600F014F900BF206800F486
:100CE00000700028FAD100BFD2E701460869C0B2FF
:100CF0007047CAB202617047016841F001010160AA
:100D0000704710B540F20152914202D142698269A6
:100D10000AE000EB9112126801F01F040123A340C6
:100D20009A4300EB91131A6010BD10B5024602EB16
:100D30009110006801F01F040123A340184008B17E
:100D4000012010BD0020FCE712F1020F02D121F0BA
:100D5000010101E041F001010161704730B50C462D
:100D60000021016821F0020121430160C3F309035E
:100D700042EA0305856030BD2DE9F0470646894605
:100D800017461D46089C4FF0010A00BF40F2016162
:100D90003046FFF7CAFF0028F8D1022C03D1A10288
:100DA0003046FFF727FD304600F0A6F800BF4FF4AD
:100DB000A0613046FFF7B9FF0028F8D06FF00102BC
:100DC00049463046FFF7C0FF0FE008F101001FFA67
:100DD00080F84EF66020804507DD304600F091F83F
:100DE0004FF0000A5046BDE8F08740F2015130460E
:100DF000FFF79BFF0028E8D040F201513046FFF793
:100E000080FF00BF40F207513046FFF78EFF0128F8
:100E1000F8D13046FFF770FF39463046FFF769FFDB
:100E200000BF40F202513046FFF77FFF0028F8D0A4
:100E3000304600F061F800BF4FF4A0613046FFF784
:100E400074FF0028F8D0012249463046FFF77CFFA6
:100E5000032C03DA00213046FFF7C4FC00BF40F248
:100E600001513046FFF761FF0028F8D040F20151F0
:100E70003046FFF746FF012C02D1304600F041F822
:100E800027E0032C0BD100BF40F202513046FFF7A0
:100E90004CFF0028F8D000213046FFF7A3FC022CBD
:100EA0000AD100BF40F202513046FFF73EFF002852
:100EB000F8D0304600F025F840F206513046FFF7F2
:100EC00034FF30B13046FFF710FF28706D1C601EF4
:100ED00084B2002CD5D100BF306800F40070002827
:100EE000FAD14FF480613046FFF77CFC0021304698
:100EF000FFF780FC504676E7016841F4807101609D
:100F00007047016841F400710160704710B50446F4
:100F10002848006840B9042C06D10020FFF78AFA5F
:100F200001202449086010BD012C06D0022C11D0EC
:100F3000032C1CD0042C38D12EE0012000F062F8E4
:100F40001D4991ED000ABDEEC00A10EE100AFFF730
:100F500071FA2BE0032000F055F8174991ED010AD2
:100F6000BDEEC00A10EE100AFFF764FA1EE040F270
:100F70005740FFF75FFA114A117A506800F086F97E
:100F80000D4880ED000AC0ED010A022000F03AF899
:100F90000020FFF74FFA09E0094A117A5068FFF77D
:100FA00043FB00200349086000E000BF00BF00BF12
:100FB000B9E70000080000200000002040000020E9
:100FC000340000200E48007800F0010008B1012034
:100FD00070470B48807800F0010008B10220F7E765
:100FE0000748007900F0010008B10320F0E7044849
:100FF000007800F0020008B10420E9E70020E7E7EC
:101000000C00002038B5044634B1012C0AD0022C63
:1010100026D0032C62D143E0344A117A506800F0A4
:10102000B4F961E01020314A0090117A0023506831
:101030001A4600F081F94FF440602C4A0090117A72
:1010400040F299135068012200F076F91020274AE7
:101050000090117A00235068022200F06DF943E0FD
:101060004FF40060214A0090117A40F299135068C1
:10107000002200F061F94FF400601C4A0090117AE0
:1010800040F299135068012200F056F91020174AD7
:101090000090117A00235068022200F04DF923E0FD
:1010A0001020124A0090117A002350681A4600F06E
:1010B00043F910200D4A0090117A00235068012254
:1010C00000F03AF94FF44060084A0090117A40F27B
:1010D00099135068022200F02FF905E0034A117AB3
:1010E000506800F052F900BF00BF38BD2800002052
:1010F00008B5FFF7FDFAFFF7DDFAFFF747FBFFF74B
:1011000027FBFFF77FFB00F0DFF900200A490860AA
:1011100010E00620094A0090117A094B50684022DD
:10112000FFF72AFEFFF74EFF0446FFF7EFFE6420AD
:10113000FFF76AF9EDE70000080000201C0000201E
:101140000C0000202DE9F04F8CB0064600200A90DC
:101150003EA090E8004CC068CDE905BECDF810A0D7
:1011600007900FF2EC0ADAE9000ACDE9020A0FF261
:10117000E00ADAE9000ACDE9000A38480068C0F35D
:1011800081000B900B9820B1012804D0022828D1AF
:1011900003E0334927E0334925E03048001F006869
:1011A00000F03F072D48001F0068C0F3881C2B4843
:1011B000001F0068C0F30140401C4FEA4009274867
:1011C000001F006800F48008B8F5800F01D1254B9E
:1011D00000E0234BB3FBF7F000FB0CF0B0FBF9F1A0
:1011E00001E01F4900BF00BF1C480068C0F30314A2
:1011F00004A8055D21FA05F218480068C0F38224AE
:1012000002A8055D22FA05F0099014480068C0F3B1
:1012100042341DF8045022FA05F0089036B1012E30
:1012200006D0022E06D0032E0AD106E00A9108E06D
:101230000A9206E009980A9003E008980A9000E0F4
:1012400000BF00BF0A980CB0BDE8F08F000000009E
:1012500000000000010203040607080908380240E4
:101260000024F40040787D01074A02EB9011D1F888
:10127000001800F01F0301229A401143024B03EBB8
:101280009012C2F8001870470030024030B52DEDC2
:10129000028B85B004460D4606232C2229462046A3
:1012A000FFF7F9FB6420FFF7AFF8062003AB21221C
:1012B000294600902046FFF75FFD9DF80D009DF840
:1012C0000C1000EB012080B208EE100AB8EE480ABC
:1012D000DFED150A20EE200ADFED140A80EE201A59
:1012E0009FED130A31EE400A8DED010A9DF81000C2
:1012F0009DF80F1000EB012080B208EE100AB8EE46
:10130000480ADFED0C0A20EE200ADFED080A80EE25
:10131000201A8DED021A9DED010ADDED020A05B0DD
:10132000BDEC028B30BD000000002F4300FF7F4763
:10133000000034420000C8422DE9F04107468846CB
:1013400014461D46069EEBB2A000801DC2B2414667
:101350003846FFF7A0FB2B12A000C01DC2B24146C9
:101360003846FFF798FBF3B2A0000830C2B24146FE
:101370003846FFF790FB3312A0000930C2B2414655
:101380003846FFF788FBBDE8F08170B504460D468E
:101390000023FA2229462046FFF77DFB0023FB228B
:1013A00029462046FFF777FB0023FC2229462046EA
:1013B000FFF771FB0023FD2229462046FFF76BFB58
:1013C00070BD0000002000213A4A126842F48032C9
:1013D000384B1A6000BF401C364A126802F40031D4
:1013E00019B94FF6FF729042F5D1324A126802F4F1
:1013F00000320AB900BFFEE72E4A4032126842F0BE
:1014000080522C4B40331A602B4A126842F44042FF
:10141000294B1A60274A08321268264B08331A6093
:101420001A46126842F400421A601A46126842F4E0
:10143000A0521A60214A1B1F1A601A1F126842F03C
:1014400080721B1F1A6000BF1A4A126802F00072F5
:10145000002AF9D0184A126842F48032164B1A60FA
:1014600000BF154A526802F48032002AF9D0124AAD
:10147000126842F40032104B1A6000BF0E4A5268E4
:1014800002F40032002AF9D00A4A0832126822F027
:101490000302084B08331A601A46126842F002022F
:1014A0001A6000BF034A0832126802F00802002ADC
:1014B000F8D07047003802400070004019544007CF
:1014C00010B5FFF77FFF10BD10B5124800684FF44C
:1014D0007A71B0FBF1F4601EB0F1807F01D301207E
:1014E0000FE0601E4FF0E02148610F214FF0FF3008
:1014F000FEF712FF00204FF0E0218861072008610D
:10150000002008B100BFFEE70021481EFEF704FFDF
:1015100010BD0000180000204FF04070E1EE100AEE
:101520007047F8013000D802780230036803E803FE
:101530003800F80378030000581500080000002068
:101540001C000000E8010008741500081C000020C1
:1015500094080000040200080000000000000000E1
:10156000000000000000000000000000000000007B
:04157000007A030AF0
:04000005080001AD41
:00000001FF
