:020000040800F2
:1000000088040020C50100082F0700082707000802
:100010002B070008210700081D0800080000000049
:100020000000000000000000000000005B07000866
:100030002507000800000000590700085D070008B8
:10004000DF010008DF010008DF010008DF01000810
:10005000DF010008DF010008DF010008DF01000800
:10006000DF010008DF010008DF010008DF010008F0
:10007000DF010008DF010008DF010008DF010008E0
:10008000DF010008DF010008DF010008DF010008D0
:10009000DF010008DF010008DF010008DF010008C0
:1000A000DF010008DF010008DF010008DF010008B0
:1000B000DF010008DF010008DF010008DF010008A0
:1000C000DF010008DF010008DF010008DF01000890
:1000D000DF010008DF010008DF010008DF01000880
:1000E000DF010008DF010008DF010008DF01000870
:1000F000DF010008DF010008DF010008DF01000860
:10010000DF010008DF010008DF010008DF0100084F
:10011000DF010008DF010008DF010008DF0100083F
:10012000DF010008DF010008DF010008DF0100082F
:10013000DF010008DF010008DF010008DF0100081F
:10014000DF010008DF010008DF010008DF0100080F
:10015000DF010008DF010008DF010008DF010008FF
:10016000DF010008DF010008DF010008DF010008EF
:10017000DF010008DF010008DF01000800000000C7
:10018000DF010008DF010008DF010008DF010008CF
:10019000DF010008DF010008DF01000800000000A7
:1001A000DF010008DF010008DF010008DFF810D0E0
:1001B00000F0A4FA0048004799190008AFF3008046
:1001C000880400200648804706480047FEE7FEE70F
:1001D000FEE7FEE7FEE7FEE7FEE7FEE7FEE7FEE7F7
:1001E00065070008AD0100082DE9FE4F804681EA51
:1001F0000300C00F0C46009021F0004123F00045A1
:10020000B8EB0200A94105D24046214690461C4663
:100210000B46024623F00040104347D0270DC7F39A
:100220000A00C3F30A510290401A019040286BDA89
:10023000C3F3130040F4801B0098924620B10023C2
:10024000D2EB030A63EB0B0B01985946C0F1400255
:10025000504600F083F906460D4650465946019A2D
:1002600000F09BF910EB08006141002487EA11526D
:1002700084EAE7731A4340D0009A62B3019A012AD4
:100280004FEA075215DC001B61EB02014FF0004200
:1002900002EA0752CDE90042001C41F580113246C6
:1002A0002B4600F09BF903B0BDE8F08F4046214695
:1002B000F9E7001B61EB0201001C41F580130018F7
:1002C0005B412018A2F5001747EB030140EAD57007
:1002D000B6196D4111E06D084FEA360645EAC07562
:1002E0004FEA0752001B61EB0201001C41F580112F
:1002F00049084FEA30000019514132462B4603B0FD
:10030000BDE8F04F00F05BB90098012240000023E7
:10031000D0EB020263EBE073009821464FEAE074F1
:10032000B8EB000061EB0401E9E783F000435BE711
:1003300081F0004158E72DE9FE4F81EA030404F003
:10034000004421F0004100944FF0000B23F00043E3
:1003500050EA01045ED052EA03045BD0C3F30A54AE
:10036000C1F30A552C44A4F2F3340194A0FB0254C7
:10037000C1F3130141F48011C3F3130343F4801359
:1003800001FB024400FB034E840A970A44EA8154AD
:1003900047EA8357A4FB076802958D0A05FB07858A
:1003A0004FEA932C04FB0C542705029D4FEA065894
:1003B00047EA1637B5EB08056EEB070C870E920E71
:1003C00047EA811742EA8312A7FB0201B6EB0B0151
:1003D00064EB00042B0D43EA0C335E1844EB1C5015
:1003E000DA465146E7FB0201C5F313044FEA0B332B
:1003F00043EA14534FEA0432019C43EA0603A4F192
:100400000C040294009CCDE900B400F0E7F803B0BE
:10041000BDE8F08F00200146F9E72DE9F04D81EAB3
:10042000030404F0004B21F0004514464FF0000A8D
:1004300023F0004150EA050220D054EA01021DD009
:10044000C5F30A570246C5F31303C1F31300C1F302
:100450000A5640F4801543F48013A7EB0608101BDE
:10046000D64608F2FD3873EB050002D308F1010807
:1004700001E092185B41B8F1000F03DA0020014659
:10048000BDE8F08D00204FF48011064684460EE052
:10049000171B73EB050705D3121B63EB050306431C
:1004A0004CEA010C49084FEA300092185B4150EACF
:1004B0000107EDD152EA030012D082EA040083EA78
:1004C0000501084305D0101BAB4106D201220023D1
:1004D00006E000224FF0004302E06FF001025310EB
:1004E0001AEB06004CEB085110EB0A0041EB0B0134
:1004F000BDE8F04D00F063B870B5C1F30A5201F0E9
:1005000000450024C1F3130140F2FF3341F4801190
:100510009A4201DA002070BD40F233439A42A2F2BF
:10052000334203DC524200F028F800E090402C43B4
:10053000F1D0404270BD00F0004230F000400AD0DF
:10054000C10D01F56071C0F3160042EA0151C20805
:10055000400711437047002001467047202A04DB02
:10056000203A00FA02F1002070479140C2F12003C6
:1005700020FA03F3194390407047202A04DB203A05
:1005800021FA02F00021704721FA02F3D040C2F1B3
:1005900020029140084319467047202A06DBCB17FA
:1005A000203A41FA02F043EAE07306E041FA02F32E
:1005B000D040C2F12002914008431946704710B55F
:1005C000141E73F1000408DA401C41F10001921876
:1005D0005B411A4301D120F0010010BD2DE9F04D1F
:1005E00092469B4611B1B1FA81F202E0B0FA80F274
:1005F00020329046FFF7B2FF04460F4640EA0A0059
:1006000041EA0B0153465A46084313D0114653EAB8
:10061000010019D0C8F140025046FFF7AEFF054671
:100620000E46504659464246FFF798FF084305D00C
:10063000012004E020463946BDE8F08D0020054346
:1006400046EAE0762C4337430A986305E40AA0EBB8
:1006500008000022FD0A44EA47540A3002D500206F
:100660000146E9E7010510196941DDE9084500196E
:100670006941BDE8F04DA2E70EB5C10F80EAE07018
:100680000844CA07002140F233438DE80E000A46B1
:100690000B46FFF7A3FF03B000BD000030B5041EFA
:1006A00071F1000404DB4FF00044404264EB0101AF
:1006B000141E73F1000405DB1C464FF00043524248
:1006C00063EB04038B4208BF824230BD30B5041E89
:1006D00071F1000404DB4FF00044404264EB01017F
:1006E000141E73F1000405DB1C464FF00043524218
:1006F00063EB0403994208BF904230BD064C074D9E
:1007000006E0E06840F0010394E8070098471034E1
:10071000AC42F6D3FFF74EFD4821000868210008DF
:1007200000BFFEE7704700BFFEE700BFFEE770476F
:1007300010B5002807DA0A07140E054A00F00F0367
:100740001B1FD45403E00A07130E024A135410BDB2
:1007500018ED00E000E400E07047704710B500F0CD
:10076000EBFA10BD08B52948006840F4700027492D
:1007700008602748006840F00100254908602448C7
:100780000830006840F080002149083108600020EE
:10079000009002E00098401C00904CF2503100980C
:1007A0008842F7D31A480830006840F09000184992
:1007B000083108600020009002E00098401C009082
:1007C0004CF2503100988842F7D30020104908318C
:1007D000086000BF0E480830006800200028F9D1EA
:1007E0000B4800680B490840094908600A48091D80
:1007F0000860081F006820F48020091F086000209E
:1008000003490C31086001F03BFC08BD88ED00E0B5
:1008100000380240FFFFF6FE1030002400BFFEE764
:1008200003B401984100009850EAC12018BF042089
:100830004A0D18BF40F0010040F2FF72B2EB515F69
:1008400008BF40F00200012808BF052002B0704731
:1008500070B52DED020B2DED0A8B82B00D98C40FF3
:1008600020F00045AE48854248D3AE48854219D3B2
:100870000C99C5F31300084309D09DED0C0B02B091
:10088000BDEC0A8B02B0BDE8704000F009BA002C44
:1008900014BF9FEDA50B9DED0C0B02B0BDEC0A8BB8
:1008A00002B070BD9FEDA20B53EC102B9DED0C0B15
:1008B00051EC100BFFF70AFF0AD2022000F02CFACD
:1008C00002B0BDEC0A8B02B0BDE8704000F0F4B994
:1008D0009FED990B53EC102B9DED0C0B51EC100B75
:1008E000FFF7DCFE0AD2022000F016FA02B0BDECDF
:1008F0000A8B02B0BDE8704000F0EEB990489FED61
:1009000092BBA8425CD29248854219D29148784461
:1009100000EBC40090ED000B53EC102B9DED0C0B85
:1009200051EC100BFFF701FD41EC1A0B8A4878449B
:1009300000EBC40090ED009BC4F10100041B36E005
:100940009FED870B53EC102B9DED0C0B51EC100B16
:10095000FFF7F1FC41EC100B8348784400EBC40036
:1009600090ED001B51EC100B53EC112BFFF73CFCEE
:10097000FFF7C2FD0446FFF77FFE41EC180B9FED29
:100980007C0B53EC102BFFF7D6FC9DED0C1B53ECAE
:10099000112BFFF7CDFC41EC1A0B9FED770B51ECBF
:1009A000180B53EC102BFFF7C6FC41EC190B51EC64
:1009B0001A0B53EC192BFFF7B8FCCDE90C011BE027
:1009C0006F48854217D29FED700B53EC102B9DEDB5
:1009D0000C0B51EC100BFFF707FC53EC1B2BFFF734
:1009E00075FE08D29DED0C0B53EC1B2B51EC100B3C
:1009F000FFF7FAFB6EE000249DED0C0B53EC102B7F
:100A000051EC100BFFF797FC41EC180B60480521E7
:100A1000B0EE480AF0EE680A784400F0C5F853ECEE
:100A2000182B51EC100BFFF786FC9DED0C1B53ECC3
:100A3000112BFFF77DFC41EC180B9FED570B5CB3BE
:100A400053EC182B51EC100BFFF76FFC9DED0C0BCA
:100A500041EC1C0B53EC182B51EC100BFFF76BFC0B
:100A600053EC1C2BFFF7D9FC53EC192BFFF760FC60
:100A700053EC1A2BFFF759FC53EC1B2BFFF758FCD8
:100A8000CDE900016FF47F70844226DB01EB045056
:100A900001909DED000B00E753EC102B51EC180B6F
:100AA000FFF743FC9DED0C0B41EC190B53EC182B9D
:100AB00051EC100BFFF73FFC53EC192BFFF7ADFC8B
:100AC0009DED0C1B53EC112BFFF72FFC53EC1B2B54
:100AD000FFF72EFC41EC100BDFE608464FF07A5191
:100AE00001EB04519FED2E0B084453EC102B0190A9
:100AF0009DED000B51EC100BFFF71DFC0D4645EC76
:100B0000100B044651EC100BFFF78AFE042808BFB7
:100B100000F0E2F845EC104BBFE6000000000000DA
:100B2000422E86400000F07F000000000000000020
:100B3000EF39FAFE422E864051302DD5104987C03C
:100B4000422ED63F00000000000000000000F03FF1
:100B5000B2A2F03FEE170000DE1700000000000018
:100B6000FE822B654715F73F92170000000000003A
:100B70000000E0FE422EE63F763C7935EF39EA3D53
:100B80000000303E000000009C7500883CE4377E89
:100B900004170000000000000000000000000040FA
:100BA000000000000000700170B504462DED028BBE
:100BB0004D1E00EBC500B0EE408AF0EE608A90ED6D
:100BC000000B35F0060017D053EC182B51EC100B2E
:100BD000FFF7B1FB41EC100B6D1E04EBC50090ED6F
:100BE000001B51EC100B53EC112BFFF7FDFA41ECFD
:100BF000100B35F00600E7D1022D36D0042D1CD0A5
:100C0000062D1CBFBDEC028B70BD53EC182B51ECB4
:100C1000100BFFF790FB94ED0A1B53EC112BFFF721
:100C2000E3FA53EC182BFFF786FB94ED081B53EC0B
:100C3000112BFFF7D9FA41EC100B53EC182B51ECA8
:100C4000100BFFF778FB94ED061B53EC112BFFF70D
:100C5000CBFA53EC182BFFF76EFB94ED040B53EC1F
:100C6000102BFFF7C1FA41EC100B53EC182B51EC91
:100C7000100BFFF760FB94ED021B53EC112BFFF7F9
:100C8000B3FA53EC182BFFF756FB94ED001B53EC13
:100C9000112BFFF7A9FABDEC028B41EC100B70BDD4
:100CA00010B553EC102B51EC100BFFF79DFA41ECF3
:100CB000100B10BD000000009FED050B10B553ECAC
:100CC000102B51EC100BFFF736FB41EC100B10BD55
:100CD00000000000000000709FED050B10B553EC04
:100CE000102B51EC100BFFF726FB41EC100B10BD45
:100CF000000000000000001002E008C8121F08C138
:100D0000002AFAD170477047002001E001C1121F8C
:100D1000002AFBD1704700000149086070470000BD
:100D2000180000200349086000BF02490968002933
:100D3000FBD17047080000200448006820B1034838
:100D40000068401E0149086070470000080000204C
:100D500070B504460D4A117A506800F042F9042536
:100D600010E00A2094FBF0F100FB1140C6B2EAB299
:100D7000064B197A5868334600F098F80A2094FB1D
:100D8000F0F46D1E002DECDC70BD00001C00002096
:100D90007CB50220084A0090117A01AB5068AA2263
:100DA00000F002FD05462DB19DF805009DF80410E8
:100DB00040EA012420467CBD64000020F0B50346D3
:100DC0001C6A5D6A00200DE00126864016403EB197
:100DD00087000F26BE40B443860001FA06F634436E
:100DE000461CB0B20828EFD3082011E00126864047
:100DF00016405EB1A0F10806B7000F26BE40B5430D
:100E0000A0F10806B60001FA06F63543461CB0B25A
:100E10001028EBD31C625D62F0BDF0B504460D46B0
:100E200016462168E268002019E0012787401F402C
:100E30009FB14FEA400C032707FA0CF7B94347006C
:100E400005FA07F739434FEA400C032707FA0CF776
:100E5000BA43470006FA07F73A43471CB8B21028CE
:100E6000E3D32160E260F0BDF0B50C461546012CDD
:100E700003D146681E43466002E046689E434660D2
:100E8000826800210DE001268E401E403EB14F00D9
:100E90000326BE40B2434E0005FA06F632434E1C0E
:100EA000B1B21029EFD38260F0BD00002DE9F0410E
:100EB00006460F4615461C46012D06D0022D16D0BB
:100EC000032D26D0042D48D135E0284810F81430E1
:100ED00002223946304600F0EEFA244800EB440086
:100EE000437803223946304600F0E5FA35E01F48E2
:100EF00010F8143004223946304600F0DCFA1B4862
:100F000000EB4400437805223946304600F0D3FA1E
:100F100023E0164810F8143006223946304600F017
:100F2000CAFA124800EB440043780722394630469B
:100F300000F0C1FA11E00D4810F8143008223946CB
:100F4000304600F0B8FA094800EB44004378092223
:100F50003946304600F0AFFA00BF00BF8122394663
:100F6000304600F077FBBDE8F0810000D820000893
:100F700070B504460D46002302222946204600F0A3
:100F80009AFA002303222946204600F094FA00230F
:100F900004222946204600F08EFA00230522294625
:100FA000204600F088FA002306222946204600F059
:100FB00082FA002307222946204600F07CFA00230B
:100FC00008222946204600F076FA00230922294605
:100FD000204600F070FA81222946204600F03AFBB4
:100FE00070BD70B504460D4621222946204600F00A
:100FF00031FB29462046FFF7BBFF70BD10B541F21B
:10100000150000F00FFF00220849094800F0B6FA69
:10101000A02300221146064800F0B8FB044800F067
:1010200075FB0121024800F07DF810BDA08601008B
:101030000054004010B540F6014000F0F3FE4FF4BC
:10104000807204211248FFF7B9FE4FF400720421A8
:101050000F48FFF7B3FE4FF48073012202210C48C2
:10106000FFF7DBFE4FF48073022201210848FFF7EF
:10107000FBFE4FF40073012202210548FFF7CDFE6D
:101080004FF40073022201210148FFF7EDFE10BD6D
:101090000004024010B541F2160000F0C3FE002229
:1010A0000849094800F06AFAA023002211460648C0
:1010B00000F06CFB044800F029FB0121024800F01D
:1010C00031F810BDA08601000058004010B540F670
:1010D000054000F0A7FE022204211048FFF76EFE33
:1010E000012204210D48FFF769FE01231A4602215F
:1010F0000A48FFF792FE0123022219460848FFF72B
:10110000B3FE0223012219460448FFF786FE02239C
:101110001A4601210148FFF7A7FE10BD0014024046
:10112000000C0240012904D1026842F4806202608E
:1011300003E0026822F480620260704721B902680D
:1011400042F40062026003E0026822F4006202607E
:101150007047000010B5002413E0C02000EB4400ED
:10116000C1B2AC4800F066F948B1AA48AA49486043
:10117000C02000EB440008720120087003E0601CEE
:10118000C4B2042CE9DB00BFA3480078012818D0C2
:10119000002413E0C02000EB4400C1B29F4800F0DF
:1011A00049F948B19D489C494860C02000EB440083
:1011B00008720120087003E0601CC4B2042CE9DB53
:1011C00000BF002413E0E02000EB4400C1B29148CE
:1011D00000F030F948B18F4891494860E02000EBB9
:1011E000440008720120087003E0601CC4B2042CA3
:1011F000E9DB00BF8A480078012818D0002413E0FA
:10120000E02000EB4400C1B2844800F013F948B17B
:10121000824883494860E02000EB440008720120C6
:10122000087003E0601CC4B2042CE9DB00BF00249A
:1012300013E0C82000EB4400C1B2764800F0FAF891
:1012400048B1744877494860C82000EB44000872F0
:101250000120087003E0601CC4B2042CE9DB00BF6D
:1012600070480078012818D0002413E0C82000EB53
:101270004400C1B2694800F0DDF848B167486949E7
:101280004860C82000EB440008720120087003E0A9
:10129000601CC4B2042CE9DB00BF6248007820B1B6
:1012A000604A117A506800F0D3FC002413E08820D3
:1012B00000EB4400C1B2574800F0BCF848B15548B3
:1012C00059494860882000EB4400087201200870EA
:1012D00003E0601CC4B2022CE9DB00BF5248007876
:1012E000012818D0002413E0882000EB4400C1B28C
:1012F0004A4800F09FF848B148484B494860882068
:1013000000EB440008720120087003E0601CC4B2C6
:10131000022CE9DB00BF4448007830B1424A117A20
:10132000A2235068302200F0C6F8002413E0E82021
:1013300000EB4400C1B2374800F07CF848B13548B2
:101340003A494860E82000EB440008720120087028
:1013500003E0601CC4B2042CE9DB00BF3348007812
:10136000012818D0002413E0E82000EB4400C1B2AB
:101370002A4800F05FF848B128482C494860E82026
:1013800000EB440008720120087003E0601CC4B246
:10139000042CE9DB00BF2548007820B1234A117AEC
:1013A0005068FFF71EFE002413E0582000EB4400B5
:1013B000C1B2184800F03EF848B116481C494860D0
:1013C000582000EB440008720120087003E0601C04
:1013D000C4B2042CE9DB00BF15480078012818D0FE
:1013E000002413E0582000EB4400C1B20B4800F089
:1013F00021F848B109480E494860582000EB4400E4
:1014000008720120087003E0601CC4B2042CE9DB00
:1014100000BF10BD005400402800002000580040CC
:101420001C000020340000207C0000204C00002024
:10143000640000202DE9F04106460F46002400BF5D
:1014400040F20161304600F07AF90028F8D13046C8
:1014500000F069FA00BF4FF4A061304600F06FF968
:101460000028F8D06FF001023946304600F084F9C8
:1014700006E0601C84B24EF66020844200DD06E087
:1014800040F20151304600F05AF90028F1D000BF77
:101490004EF66020844201DD002500E00125304643
:1014A00000F046FA00BF306800F400700028FAD15E
:1014B0002846BDE8F0812DE9F041044688461546EE
:1014C0001E4600BF40F20161204600F038F90028B6
:1014D000F8D1204600F027FA00BF4FF4A061204663
:1014E00000F02DF90028F8D06FF0010241462046A7
:1014F00000F042F90AE0781C87B24EF6602087427D
:1015000004DD204600F014FABDE8F08140F20151FC
:10151000204600F014F90028EDD040F20151204699
:1015200000F0F9F800BF40F20751204600F007F93B
:101530000128F8D12946204600F0E5F800BF40F226
:101540000251204600F0FBF80028F8D03146204632
:1015500000F0D9F800BF40F20251204600F0EFF849
:101560000028F8D0204600F0E3F900BF206800F41E
:1015700000700028FAD100BFC6E700002DE9F05F37
:1015800004460E469346022000F0BAFB07462E485A
:10159000B7FBF0F8B8F1320F01D34FF03208D4F8AE
:1015A00004A02AF03F0A4AEA080AC4F804A027481F
:1015B000864218D82448B7FBF0F000F10109B9F1D0
:1015C000320F02D33220206201E0C4F82090700074
:1015D000B7FBF0F5042D00D20425E069C5F30B013B
:1015E0000843E0612EE01A4886422BD84FF49670EB
:1015F00008FB00F04FF47A71B0FBF1F0401C206260
:10160000BBF1000F08D106EB4600B7FBF0F5E0692F
:1016100020F48040E06109E006EBC60000EB061014
:10162000B7FBF0F5E06940F48040E061C5F30B00E2
:1016300008B945F00105E06940F40040E061E06967
:101640002843E061BDE8F09F40420F00A086010002
:10165000801A06002DE9F04104460F46154600BFEA
:1016600040F20161204600F06AF80028F8D12046D7
:1016700000F059F900BF4FF4A061204600F05FF878
:101680000028F8D06FF001023946204600F074F8C7
:101690000AE0701C86B24EF66020864204DD2046C9
:1016A00000F046F9BDE8F08140F20151204600F01B
:1016B00046F80028EDD040F20151204600F02BF80A
:1016C00000BF40F20751204600F039F80128F8D158
:1016D0002946204600F017F800BF40F2025120468C
:1016E00000F02DF80028F8D0204600F021F900BFC6
:1016F000206800F400700028FAD100BFD2E701464C
:101700000869C0B27047CAB202617047016841F00F
:1017100001010160704710B540F20152914202D1BF
:10172000426982690AE000EB9112126801F01F041D
:101730000123A3409A4300EB91131A6010BD10B52A
:10174000024602EB9110006801F01F040123A34040
:10175000184008B1012010BD0020FCE710B5FFF7CC
:1017600069FCFFF74BFCFFF7B1FCFFF793FC00F0BF
:101770008BFCFFF7EFFC10BD12F1020F02D121F03C
:10178000010101E041F001010161704730B50C46F3
:101790000021016821F0020121430160C3F3090324
:1017A00042EA0305856030BD2DE9F04706468946CB
:1017B00017461D46089C4FF0010A00BF40F2016128
:1017C0003046FFF7BCFF0028F8D1022C03D10021DE
:1017D0003046FFF7B3FC304600F0A5F800BF4FF4E9
:1017E000A0613046FFF7ABFF0028F8D06FF0010290
:1017F00049463046FFF7C0FF0FE008F101001FFA2D
:1018000080F84EF66020804507DD304600F090F805
:101810004FF0000A5046BDE8F08740F201513046D3
:10182000FFF78DFF0028E8D040F201513046FFF766
:1018300072FF00BF40F207513046FFF780FF0128DA
:10184000F8D13046FFF762FF39463046FFF75BFFBD
:1018500000BF40F202513046FFF771FF0028F8D078
:10186000304600F060F800BF4FF4A0613046FFF74B
:1018700066FF0028F8D0012249463046FFF77CFF7A
:10188000032C03DA00213046FFF74CFC00BF40F286
:1018900001513046FFF753FF0028F8D040F20151C4
:1018A0003046FFF738FF012C02D1304600F040F8F7
:1018B00027E0032C0BD100BF40F202513046FFF766
:1018C0003EFF0028F8D000213046FFF72BFC022C09
:1018D0000AD100BF40F202513046FFF730FF002826
:1018E000F8D0304600F024F840F206513046FFF7B9
:1018F00026FF30B13046FFF702FF28706D1C601ED6
:1019000084B2002CD5D100BF306800F400700028EC
:10191000FAD101213046FFF705FC01213046FFF7DF
:101920000DFC504677E7016841F480710160704713
:10193000016841F4007101607047000015480078AB
:1019400000F0010008B1012070471248807800F0D3
:10195000010008B10220F7E70E48007900F001000D
:1019600008B10320F0E70B48007800F0020008B14E
:101970000420E9E70748807800F0020008B105205C
:10198000E2E70448007900F0020008B10620DBE736
:101990000020D9E70C0000202DED0E8B82B0FFF760
:1019A000DDFE0027B94601254FF000084FF0000A80
:1019B00000F04AFA32E1FFF7EBF90446B9F1000F03
:1019C00012DBB8F1000F02D14846FFF7C1F9002D34
:1019D00000DD6D1EB9F1000F06D1914A117A5068F1
:1019E000002200F043F90027B8F1010F09D1284681
:1019F000FFF7AEF90AF1010ABAF1030F01D14FF076
:101A00000008B8F1020F02D13846FFF7A1F9B8F18A
:101A1000030F7DD1834890ED000A10EE101A08469E
:101A2000FEF789FD41EC1E0B9FED7F0B53EC102B55
:101A3000FEF7DAFB41EC1C0B7A4890ED000A10EE41
:101A4000101A0846FEF777FD41EC1E0B9FED780B50
:101A500053EC102BFEF76FFC41EC1D0B53EC1C2BD1
:101A6000FEF7DBFC41EC1B0BB0EE4B0AF0EE6B0A11
:101A7000FEF7EEFEB0EE409AF0EE609A694890ED07
:101A8000000A10EE101A0846FEF755FD41EC1C0B3B
:101A90009FED690B53EC102BFEF74DFC41EC1B0B3B
:101AA0009FED670B53EC102BFEF73FFC41EC1A0B3C
:101AB00053EC192BFEF798FB41EC180BFEF71CFDBD
:101AC00006463046FFF744F9192E06DA544A117AD1
:101AD0005068002200F0CAF80027192E08DB1B2EE0
:101AE00006DC4F4A117A5068012200F0BFF8012746
:101AF0001B2E08DD1E2E06DC494A117A5068022290
:101B000000F0B4F802271E2E08DD454A117A00E0E5
:101B100005E05068032200F0A9F8032700BFB8F1E0
:101B2000040F2ED12046FFF713F9322C06DA3C4A77
:101B3000117A5068002200F099F80027322C09DB56
:101B4000B4F5967F06DC364A117A5068012200F01F
:101B50008DF80127B4F5967F09DDB4F5167F06DC14
:101B60002F4A117A5068022200F080F80227B4F55B
:101B7000167F06DD2A4A117A5068032200F076F8B3
:101B800003270620304A0090117A304B50684022DB
:101B9000FFF70AFEFFF7D2FE072838D2DFE800F091
:101BA00037040A121E3134000A354FF001084FF095
:101BB000000A2CE00A2D00DB0A3D4FF001084FF02F
:101BC000000A24E0A9464FF0000807B90227FAB23C
:101BD000134B197A586800F049F818E0781CC117BF
:101BE00000EB91718910A0EB8107FAB20C4B197AC6
:101BF000586800F03BF83846FFF7AAF84FF00208A3
:101C000005E04FF0030802E04FF0040800BF00BFFA
:101C10004FF47A70FFF786F8A9F10109CBE60000CE
:101C20003400002000000020713D0AD7A3A86D40B9
:101C300085EB51B81E4531401F85EB51B81EF13F71
:101C40009A999999999905404C0000200C00002020
:101C500070B504460D4600231A4629462046FFF774
:101C60002AFC2946204600F070F970BDF8B50546FB
:101C70000E46144600231A4631462846FFF71BFC41
:101C800034B1012C0FD0022C17D0032C2BD11FE024
:101C90004FF4805040F299130022314600902846BC
:101CA00000F02AF92AE040F26560831000223146F4
:101CB0000090284600F020F920E040F6323040F253
:101CC0009913002231460090284600F015F915E0DE
:101CD00040F6FF7040F299130022314600902846EA
:101CE00000F00AF90AE04FF4805040F29913002204
:101CF00031460090284600F0FFF800BF00BFF8BD55
:101D00002DE9F04F8CB0064600200A903EA090E8E6
:101D1000004CC068CDE905BECDF810A007900FF2C9
:101D2000EC0ADAE9000ACDE9020A0FF2E00ADAE980
:101D3000000ACDE9000A38480068C0F381000B9022
:101D40000B9820B1012804D0022828D103E03349A0
:101D500027E0334925E03048001F006800F03F07C6
:101D60002D48001F0068C0F3881C2B48001F006826
:101D7000C0F30140401C4FEA40092748001F00689B
:101D800000F48008B8F5800F01D1254B00E0234B0B
:101D9000B3FBF7F000FB0CF0B0FBF9F101E01F49D9
:101DA00000BF00BF1C480068C0F3031404A8055D11
:101DB00021FA05F218480068C0F3822402A8055DE4
:101DC00022FA05F0099014480068C0F342341DF867
:101DD000045022FA05F0089036B1012E06D0022EEA
:101DE00006D0032E0AD106E00A9108E00A9206E026
:101DF00009980A9003E008980A9000E000BF00BF2D
:101E00000A980CB0BDE8F08F000000000000000050
:101E10000102030406070809083802400024F40000
:101E200040787D01074A02EB9011D1F8001800F0CC
:101E30001F0301229A401143024B03EB9012C2F898
:101E4000001870470030024000B52DED028B83B0C2
:101E5000234A117A062350682C22FFF72CFB6420BA
:101E6000FEF760FF06201E4A0090117A01AB506811
:101E70002122FFF799FC9DF805009DF8041000EB66
:101E8000012080B208EE100AB8EE480ADFED150A0C
:101E900020EE200ADFED140A80EE201A9FED130ACF
:101EA00031EE400A124880ED000A9DF808009DF8C6
:101EB000071000EB012080B208EE100AB8EE480AC5
:101EC000DFED0C0A20EE200ADFED070A80EE201A73
:101ED000074880ED011A03B0BDEC028B00BD000085
:101EE0007C00002000002F4300FF7F4700003442A9
:101EF000000000200000C8422DE9F0410746884656
:101F000014461D46069EEBB2A000801DC2B241469B
:101F10003846FFF7D0FA2B12A000C01DC2B24146CE
:101F20003846FFF7C8FAF3B2A0000830C2B2414603
:101F30003846FFF7C0FA3312A0000930C2B241465A
:101F40003846FFF7B8FABDE8F08170B504460D4693
:101F50000023FA2229462046FFF7ADFA0023FB2290
:101F600029462046FFF7A7FA0023FC2229462046EF
:101F7000FFF7A1FA1023FD2229462046FFF79BFA1E
:101F800070BD0000002000213A4A126842F48032FD
:101F9000384B1A6000BF401C364A126802F4003108
:101FA00019B94FF6FF729042F5D1324A126802F425
:101FB00000320AB900BFFEE72E4A4032126842F0F2
:101FC00080522C4B40331A602B4A126842F4404234
:101FD000294B1A60274A08321268264B08331A60C8
:101FE0001A46126842F400421A601A46126842F415
:101FF000A0521A60214A1B1F1A601A1F126842F071
:1020000080721B1F1A6000BF1A4A126802F0007229
:10201000002AF9D0184A126842F48032164B1A602E
:1020200000BF154A526802F48032002AF9D0124AE1
:10203000126842F40032104B1A6000BF0E4A526818
:1020400002F40032002AF9D00A4A0832126822F05B
:102050000302084B08331A601A46126842F0020263
:102060001A6000BF034A0832126802F00802002A10
:10207000F8D0704700380240007000401954400703
:1020800010B5FFF77FFF10BD10B5124800684FF480
:102090007A71B0FBF1F4601EB0F1807F01D30120B2
:1020A0000FE0601E4FF0E02148610F214FF0FF303C
:1020B000FEF73EFB00204FF0E02188610720086119
:1020C000002008B100BFFEE70021481EFEF730FBEC
:1020D00010BD000014000020F8013000D802780282
:1020E00030036803E8033800F803780300000000B9
:1020F000000000000000E03F000000000000E0BF22
:102100000000E0FE422EE63F0000E0FE422EE6BF69
:10211000763C7935EF39EA3D763C7935EF39EABDE1
:102120003E5555555555C53F93BDBE166CC166BF4E
:102130002CDE25AF6A56113FF16BD2C541BDBBBE47
:10214000D0A4BE726937663E6821000800000020F6
:102150001C000000F80C0008842100081C0000206E
:102160006C040000080D00080000000000000000E2
:10217000000000000000000000000000007A030AD8
:04218000000000005B
:04000005080001AD41
:00000001FF
