:020000040800F2
:10000000A80800204D020008150300080D03000891
:1000100011030008070300080504000800000000A1
:100020000000000000000000000000004303000882
:100030000B0300080000000041030008450300080E
:1000400067020008670200086702000867020008EC
:1000500067020008670200086702000867020008DC
:1000600067020008670200086702000867020008CC
:1000700067020008670200086702000867020008BC
:1000800067020008670200086702000867020008AC
:10009000670200086702000867020008670200089C
:1000A000670200086702000867020008670200088C
:1000B000670200086702000867020008670200087C
:1000C000670200086702000867020008670200086C
:1000D000670200086702000867020008670200085C
:1000E000670200086702000867020008670200084C
:1000F000670200086702000867020008670200083C
:10010000670200086702000867020008670200082B
:10011000670200086702000867020008670200081B
:10012000670200086702000867020008670200080B
:1001300067020008670200086702000867020008FB
:1001400067020008670200086702000867020008EB
:1001500067020008670200086702000867020008DB
:1001600067020008670200086702000867020008CB
:10017000670200086702000867020008000000002C
:1001800067020008670200086702000867020008AB
:10019000670200086702000867020008000000000C
:1001A00067020008670200086702000800F002F812
:1001B00000F03CF80AA090E8000C82448344AAF1C5
:1001C0000107DA4501D100F031F8AFF2090EBAE8C3
:1001D0000F0013F0010F18BFFB1A43F0010318477B
:1001E0004812000068120000103A24BF78C878C195
:1001F000FAD8520724BF30C830C144BF04680C602D
:10020000704700000023002400250026103A28BF74
:1002100078C1FBD8520728BF30C148BF0B60704778
:100220001FB501F0F1F81FBD10B510BD00F031F899
:100230001146FFF7F5FF00F01BFF00F04FF803B485
:10024000FFF7F2FF03BC00F057F8000009488047B1
:1002500009480047FEE7FEE7FEE7FEE7FEE7FEE7A8
:10026000FEE7FEE7FEE7FEE704480549054A064BC0
:10027000704700004D030008AD010008A8000020F1
:10028000A8080020A8040020A80400207047704798
:100290007047754600F02CF8AE4605006946534697
:1002A00020F00700854618B020B5FFF7DDFFBDE858
:1002B00020404FF000064FF000074FF000084FF0CD
:1002C000000B21F00701AC46ACE8C009ACE8C0095E
:1002D000ACE8C009ACE8C0098D46704710B50446CB
:1002E000AFF300802046BDE81040FFF7A8BF000034
:1002F000004870474400002001491820ABBEFEE7CB
:1003000026000200704700BFFEE7704700BFFEE70F
:1003100000BFFEE77047000010B5002807DA0A07A3
:10032000140E054A00F00F031B1FD45403E00A0704
:10033000130E024A135410BD18ED00E000E400E073
:100340007047704710B500F0C7F810BD08B52948D0
:10035000006840F47000274908602748006840F0B2
:1003600001002549086024480830006840F08000FA
:100370002149083108600020009002E00098401CEC
:1003800000904CF2503100988842F7D31A48083058
:10039000006840F090001849083108600020009083
:1003A00002E00098401C00904CF2503100988842C6
:1003B000F7D3002010490831086000BF0E4808300C
:1003C000006800200028F9D10B4800680B4908405C
:1003D000094908600A48091D0860081F006820F4E0
:1003E0008020091F0860002003490C31086000F0DC
:1003F000DFFF08BD88ED00E000380240FFFFF6FE99
:100400001030002400BFFEE77CB504460D460122F3
:100410002946204600F01BF8B42000F053F80220D3
:1004200001AB462229460090204600F0FFFC9DF8D3
:1004300005009DF8041040EA01207CBD70B504461B
:100440000D4601222946204600F054FC70BD70B5CF
:1004500005460E461446062C28D2DFE804F00309B0
:100460000F151B2110223146284600F043FC00BF27
:1004700011223146284600F03DFC00BF13223146D0
:10048000284600F037FC00BF20223146284600F005
:1004900031FC00BF21223146284600F02BFC00BF72
:1004A00023223146284600F025FC00BF00BF70BD66
:1004B00070B504460D4607222946204600F01AFC76
:1004C00070BD00000349086000BF024909680029A7
:1004D000FBD170470C0000200448006820B103489D
:1004E0000068401E01490860704700000C000020B1
:1004F00070B50446042510E00A2094FBF0F100FBDF
:100500001140C6B2EAB2064B197A5868334600F079
:1005100095F80A2094FBF0F46D1E002DECDC70BD04
:100520003800002070B504460D46012229462046B9
:1005300000F0E0FB70BD70B505460E46144623463C
:1005400003223146284600F000FB70BDF0B503469B
:100550001C6A5D6A00200DE00126864016403EB10F
:1005600087000F26BE40B443860001FA06F63443E6
:10057000461CB0B20828EFD3082011E001268640BF
:1005800016405EB1A0F10806B7000F26BE40B54385
:10059000A0F10806B60001FA06F63543461CB0B2D3
:1005A0001028EBD31C625D62F0BDF0B504460D4629
:1005B00016462168E268002019E0012787401F40A5
:1005C0009FB14FEA400C032707FA0CF7B9434700E5
:1005D00005FA07F739434FEA400C032707FA0CF7EF
:1005E000BA43470006FA07F73A43471CB8B2102847
:1005F000E3D32160E260F0BDF0B50C461546012C56
:1006000003D146681E43466002E046689E4346604A
:10061000826800210DE001268E401E403EB14F0051
:100620000326BE40B2434E0005FA06F632434E1C86
:10063000B1B21029EFD38260F0BD00002DE9F04186
:1006400006460F4615461C46012D06D0022D16D033
:10065000032D26D0042D48D135E0284810F8143059
:1006600002223946304600F070FA244800EB44007C
:10067000437803223946304600F067FA35E01F48D8
:1006800010F8143004223946304600F05EFA1B4858
:1006900000EB4400437805223946304600F055FA15
:1006A00023E0164810F8143006223946304600F090
:1006B0004CFA124800EB4400437807223946304692
:1006C00000F043FA11E00D4810F8143008223946C2
:1006D000304600F03AFA094800EB4400437809221A
:1006E0003946304600F031FA00BF00BF812239465A
:1006F000304600F0FFFABDE8F08100001214000857
:1007000070B504460D46002302222946204600F01B
:100710001CFA002303222946204600F016FA002383
:1007200004222946204600F010FA0023052229461B
:10073000204600F00AFA002306222946204600F04F
:1007400004FA002307222946204600F0FEF9002380
:1007500008222946204600F0F8F9002309222946FC
:10076000204600F0F2F981222946204600F0C2FA24
:1007700070BD70B504460D4621222946204600F082
:10078000B9FA29462046FFF7BBFF70BD10B541F20C
:10079000150000F07DFD002209490A4800F038FAF2
:1007A000A02300221146074800F032FB054800F064
:1007B000FDFA4FF48061034800F080F810BD00009E
:1007C000A08601000054004010B540F6014000F042
:1007D0005FFD4FF4807204211248FFF7B7FE4FF41B
:1007E000007204210F48FFF7B1FE4FF4807301221D
:1007F00002210C48FFF7D9FE4FF480730222012139
:100800000848FFF7F9FE4FF4007301220221054862
:10081000FFF7CBFE4FF40073022201210148FFF7DE
:10082000EBFE10BD0004024010B541F2160000F0CE
:100830002FFD002209490A4800F0EAF9A02300220E
:100840001146074800F0E4FA054800F0AFFA4FF40B
:100850008061034800F032F810BD0000A08601005E
:100860000058004010B540F6054000F011FD02228E
:1008700004211048FFF76AFE012204210D48FFF70A
:1008800065FE01231A4602210A48FFF78EFE012366
:10089000022219460848FFF7AFFE0223012219463B
:1008A0000448FFF782FE02231A4601210148FFF7A0
:1008B000A3FE10BD00140240000C02400A460021B5
:1008C000016821F480611143016070470A460021EC
:1008D000016821F4006111430160704770B5002484
:1008E00013E0E82000EB4400C1B2714800F0ECF8DE
:1008F00048B16F486F494860E82000EB4400087237
:100900000120087003E0601CC4B2042CE9DB00BFC6
:1009100068480078012818D0002413E0E82000EB94
:100920004400C1B2644800F0CFF848B16248614960
:100930004860E82000EB440008720120087003E0E2
:10094000601CC4B2042CE9DB00BF5A4A117A50681B
:10095000212200F0CFF94621554800F0B5F838B112
:1009600053485649486046200872012008700BE041
:10097000B8214F4800F0A8F830B14D484F494860C1
:10098000B8200872012008704C480078012818D05F
:100990004621494800F098F838B14748474948602F
:1009A00046200872012008700BE0B821424800F090
:1009B0008BF830B1404841494860B82008720120A6
:1009C0000870002413E0E02000EB4400C1B2384876
:1009D00000F07AF848B1364839494860E02000EB29
:1009E000440008720120087003E0601CC4B2042CAB
:1009F000E9DB00BF32480078012818D0002413E05A
:100A0000E02000EB4400C1B22B4800F05DF848B193
:100A100029482B494860E02000EB4400087201207F
:100A2000087003E0601CC4B2042CE9DB00BF0025A1
:100A300011E0382000EB4500C1B21D4800F044F839
:100A400040B11B481F494860382000EB4500087240
:100A5000012008706D1C042DEBDB1A48007801287A
:100A60001DD0002511E0382000EB4500C1B212482E
:100A700000F02AF840B1104812494860382000EBD5
:100A800045000872012008706D1C042DEBDB0D4839
:100A9000007820B10B4A117A5068FFF743FD0748F0
:100AA000007820B1054A117A5068FFF701FD70BD4A
:100AB000005400402C00002000580040200000207E
:100AC00038000020140000202DE9F04106460F46B2
:100AD000002400BF40F20161304600F080F9002898
:100AE000F8D1304600F062FA00BF4FF4A061304602
:100AF00000F075F90028F8D06FF001023946304651
:100B000000F07CF906E0601C84B24EF6602084425E
:100B100000DD06E040F20151304600F060F90028A7
:100B2000F1D000BF4EF66020844201DD002500E0D8
:100B30000125304600F03FFA00BF306800F4007035
:100B40000028FAD12846BDE8F0812DE9F04104469D
:100B5000884615461E4600BF40F20161204600F05F
:100B60003EF90028F8D1204600F020FA00BF4FF4EB
:100B7000A061204600F033F90028F8D06FF00102A0
:100B80004146204600F03AF90AE0781C87B24EF65A
:100B90006020874204DD204600F00DFABDE8F081B8
:100BA00040F20151204600F01AF90028EDD040F241
:100BB0000151204600F0FFF800BF40F207512046E7
:100BC00000F00DF90128F8D12946204600F0EBF895
:100BD00000BF40F20251204600F001F90028F8D091
:100BE0003146204600F0DFF800BF40F202512046B7
:100BF00000F0F5F80028F8D0204600F0DCF900BF3E
:100C0000206800F400700028FAD100BFC6E7000099
:100C10002DE9F05F04460E469346022000F0A6FA46
:100C200007463148B7FBF0F9B9F13C0F01D34FF05B
:100C30003C09D4F804A02AF03F0A4AEA090AC4F899
:100C400004A02A4886421ED82748B7FBF0F000F1DE
:100C50000108B8F13C0F02D33C20206207E0B8F154
:100C6000020F02D80220206201E0C4F82080700048
:100C7000B7FBF0F5042D00D20425E069C5F30B01A4
:100C80000843E0612EE01A4886422BD84FF4967054
:100C900009FB00F04FF47A71B0FBF1F0401C2062C8
:100CA000BBF1000F08D106EB4600B7FBF0F5E06999
:100CB00020F48040E06109E006EBC60000EB06107E
:100CC000B7FBF0F5E06940F48040E061C5F30B004C
:100CD00008B945F00105E06940F40040E061E069D1
:100CE0002843E061BDE8F09F40420F00A08601006C
:100CF000801A06002DE9F04104460F46154600BF54
:100D000040F20161204600F06AF80028F8D1204640
:100D100000F04CF900BF4FF4A061204600F05FF8EE
:100D20000028F8D06FF001023946204600F066F83E
:100D30000AE0701C86B24EF66020864204DD204632
:100D400000F039F9BDE8F08140F20151204600F091
:100D500046F80028EDD040F20151204600F02BF873
:100D600000BF40F20751204600F039F80128F8D1C1
:100D70002946204600F017F800BF40F202512046F5
:100D800000F02DF80028F8D0204600F014F900BF3C
:100D9000206800F400700028FAD100BFD2E70146B5
:100DA0000869C0B27047CAB202617047016841F079
:100DB00001010160704710B540F20152914202D129
:100DC000426982690AE000EB9112126801F01F0487
:100DD0000123A3409A4300EB91131A6010BD10B594
:100DE000024602EB9110006801F01F040123A340AA
:100DF000184008B1012010BD0020FCE712F1020FDD
:100E000002D121F0010101E041F0010101617047CF
:100E100030B50C460021016821F002012143016038
:100E2000C3F3090342EA0305856030BD2DE9F047AD
:100E30000646894617461D46089C4FF0010A00BF2A
:100E400040F201613046FFF7CAFF0028F8D1022CBA
:100E500003D1A1023046FFF739FD304600F0A6F875
:100E600000BF4FF4A0613046FFF7B9FF0028F8D06B
:100E70006FF0010249463046FFF7C0FF0FE008F16E
:100E800001001FFA80F84EF66020804507DD3046ED
:100E900000F091F84FF0000A5046BDE8F08740F2AC
:100EA00001513046FFF79BFF0028E8D040F2015186
:100EB0003046FFF780FF00BF40F207513046FFF792
:100EC0008EFF0128F8D13046FFF770FF39463046D3
:100ED000FFF769FF00BF40F202513046FFF77FFF86
:100EE0000028F8D0304600F061F800BF4FF4A06150
:100EF0003046FFF774FF0028F8D0012249463046FB
:100F0000FFF77CFF032C03DA00213046FFF7D6FC05
:100F100000BF40F201513046FFF761FF0028F8D0D2
:100F200040F201513046FFF746FF012C02D1304616
:100F300000F041F827E0032C0BD100BF40F2025132
:100F40003046FFF74CFF0028F8D000213046FFF76D
:100F5000B5FC022C0AD100BF40F202513046FFF727
:100F60003EFF0028F8D0304600F025F840F2065148
:100F70003046FFF734FF30B13046FFF710FF2870DE
:100F80006D1C601E84B2002CD5D100BF306800F407
:100F900000700028FAD14FF480613046FFF78EFCD4
:100FA00000213046FFF792FC504676E7016841F495
:100FB000807101607047016841F400710160704701
:100FC0002A48007800F0010008B101207047274846
:100FD000807800F0010008B10220F7E7234800798B
:100FE00000F0010008B10320F0E72048007800F08D
:100FF000020008B10420E9E71C48807800F00200F4
:1010000008B10520E2E71948007900F0020008B1B4
:101010000620DBE71548007800F0040008B107203F
:10102000D4E71248807800F0040008B10820CDE72A
:101030000E48007900F0040008B10920C6E70B480B
:10104000007800F0080008B10A20BFE70748807860
:1010500000F0080008B10B20B8E70448007900F060
:10106000080008B10C20B1E70020AFE70400002021
:1010700008B5FFF7A9FBFFF789FBFFF7F3FBFFF7C5
:10108000D3FBFFF72BFC00F097F9324A117A506836
:10109000FFF76FFB304A117A5068FFF7CFF9002055
:1010A0002E49086054E02C4A117A5068FFF7ACF9D9
:1010B00004462046FFF71CFA0620294A0090117AC0
:1010C000284B50684022FFF7B1FE244800680128F1
:1010D00009D1032094FBF0F0C5B2234A117A50687D
:1010E0002A46FFF728FAFFF76BFF012801DD0121EF
:1010F00000E00021FFF764FF0C2801DA012000E086
:101100000020014061B1FFF75BFF401E00EB800053
:101110004006050E144A117A50682A46FFF70BFA6A
:10112000FFF74EFF012805D10F4A117A50680022BF
:10113000FFF701FAFFF744FF0C2805D107480068C4
:10114000C0F10100054908604FF47A70FFF7BAF961
:10115000A9E7000038000020200000200000002047
:101160002C00002004000020140000202DE9F04F86
:101170008CB0064600200A903EA090E8004CC06863
:10118000CDE905BECDF810A007900FF2EC0ADAE920
:10119000000ACDE9020A0FF2E00ADAE9000ACDE915
:1011A000000A38480068C0F381000B900B9820B10A
:1011B000012804D0022828D103E0334927E033492D
:1011C00025E03048001F006800F03F072D48001F51
:1011D0000068C0F3881C2B48001F0068C0F3014062
:1011E000401C4FEA40092748001F006800F48008AF
:1011F000B8F5800F01D1254B00E0234BB3FBF7F08E
:1012000000FB0CF0B0FBF9F101E01F4900BF00BF8B
:101210001C480068C0F3031404A8055D21FA05F218
:1012200018480068C0F3822402A8055D22FA05F080
:10123000099014480068C0F342341DF8045022FAA3
:1012400005F0089036B1012E06D0022E06D0032EEE
:101250000AD106E00A9108E00A9206E009980A908D
:1012600003E008980A9000E000BF00BF0A980CB0A5
:10127000BDE8F08F00000000000000000102030440
:1012800006070809083802400024F40040787D0170
:10129000074A02EB9011D1F8001800F01F03012259
:1012A0009A401143024B03EB9012C2F800187047AA
:1012B00000300240002000213A4A126842F4803295
:1012C000384B1A6000BF401C364A126802F40031E5
:1012D00019B94FF6FF729042F5D1324A126802F402
:1012E00000320AB900BFFEE72E4A4032126842F0CF
:1012F00080522C4B40331A602B4A126842F4404211
:10130000294B1A60274A08321268264B08331A60A4
:101310001A46126842F400421A601A46126842F4F1
:10132000A0521A60214A1B1F1A601A1F126842F04D
:1013300080721B1F1A6000BF1A4A126802F0007206
:10134000002AF9D0184A126842F48032164B1A600B
:1013500000BF154A526802F48032002AF9D0124ABE
:10136000126842F40032104B1A6000BF0E4A5268F5
:1013700002F40032002AF9D00A4A0832126822F038
:101380000302084B08331A601A46126842F0020240
:101390001A6000BF034A0832126802F00802002AED
:1013A000F8D07047003802400070004019544007E0
:1013B00010B5FFF77FFF10BD10B5124800684FF45D
:1013C0007A71B0FBF1F4601EB0F1807F01D301208F
:1013D0000FE0601E4FF0E02148610F214FF0FF3019
:1013E000FEF79AFF00204FF0E02188610720086196
:1013F000002008B100BFFEE70021481EFEF78CFF69
:1014000010BD0000100000204FF04070E1EE100A07
:101410007047F8013000D802780230036803E8030F
:101420003800F8037803000048140008000000208A
:1014300014000000E80100085C14000814000020FB
:1014400094080000040200080000000000000000F2
:0C1450000000000000000000007A030A09
:04000005080001AD41
:00000001FF
